{
  "_format": "hh-sol-artifact-1",
  "contractName": "NFTSTORE",
  "sourceName": "contracts/NFTSTORE.sol",
  "abi": [
    {
      "inputs": [],
      "stateMutability": "nonpayable",
      "type": "constructor"
    },
    {
      "inputs": [
        {
          "internalType": "address",
          "name": "sender",
          "type": "address"
        },
        {
          "internalType": "uint256",
          "name": "tokenId",
          "type": "uint256"
        },
        {
          "internalType": "address",
          "name": "owner",
          "type": "address"
        }
      ],
      "name": "ERC721IncorrectOwner",
      "type": "error"
    },
    {
      "inputs": [
        {
          "internalType": "address",
          "name": "operator",
          "type": "address"
        },
        {
          "internalType": "uint256",
          "name": "tokenId",
          "type": "uint256"
        }
      ],
      "name": "ERC721InsufficientApproval",
      "type": "error"
    },
    {
      "inputs": [
        {
          "internalType": "address",
          "name": "approver",
          "type": "address"
        }
      ],
      "name": "ERC721InvalidApprover",
      "type": "error"
    },
    {
      "inputs": [
        {
          "internalType": "address",
          "name": "operator",
          "type": "address"
        }
      ],
      "name": "ERC721InvalidOperator",
      "type": "error"
    },
    {
      "inputs": [
        {
          "internalType": "address",
          "name": "owner",
          "type": "address"
        }
      ],
      "name": "ERC721InvalidOwner",
      "type": "error"
    },
    {
      "inputs": [
        {
          "internalType": "address",
          "name": "receiver",
          "type": "address"
        }
      ],
      "name": "ERC721InvalidReceiver",
      "type": "error"
    },
    {
      "inputs": [
        {
          "internalType": "address",
          "name": "sender",
          "type": "address"
        }
      ],
      "name": "ERC721InvalidSender",
      "type": "error"
    },
    {
      "inputs": [
        {
          "internalType": "uint256",
          "name": "tokenId",
          "type": "uint256"
        }
      ],
      "name": "ERC721NonexistentToken",
      "type": "error"
    },
    {
      "anonymous": false,
      "inputs": [
        {
          "indexed": true,
          "internalType": "address",
          "name": "owner",
          "type": "address"
        },
        {
          "indexed": true,
          "internalType": "address",
          "name": "approved",
          "type": "address"
        },
        {
          "indexed": true,
          "internalType": "uint256",
          "name": "tokenId",
          "type": "uint256"
        }
      ],
      "name": "Approval",
      "type": "event"
    },
    {
      "anonymous": false,
      "inputs": [
        {
          "indexed": true,
          "internalType": "address",
          "name": "owner",
          "type": "address"
        },
        {
          "indexed": true,
          "internalType": "address",
          "name": "operator",
          "type": "address"
        },
        {
          "indexed": false,
          "internalType": "bool",
          "name": "approved",
          "type": "bool"
        }
      ],
      "name": "ApprovalForAll",
      "type": "event"
    },
    {
      "anonymous": false,
      "inputs": [
        {
          "indexed": false,
          "internalType": "uint256",
          "name": "_fromTokenId",
          "type": "uint256"
        },
        {
          "indexed": false,
          "internalType": "uint256",
          "name": "_toTokenId",
          "type": "uint256"
        }
      ],
      "name": "BatchMetadataUpdate",
      "type": "event"
    },
    {
      "anonymous": false,
      "inputs": [
        {
          "indexed": false,
          "internalType": "uint256",
          "name": "_tokenId",
          "type": "uint256"
        }
      ],
      "name": "MetadataUpdate",
      "type": "event"
    },
    {
      "anonymous": false,
      "inputs": [
        {
          "indexed": true,
          "internalType": "address",
          "name": "from",
          "type": "address"
        },
        {
          "indexed": true,
          "internalType": "address",
          "name": "to",
          "type": "address"
        },
        {
          "indexed": true,
          "internalType": "uint256",
          "name": "tokenId",
          "type": "uint256"
        }
      ],
      "name": "Transfer",
      "type": "event"
    },
    {
      "inputs": [
        {
          "internalType": "address",
          "name": "to",
          "type": "address"
        },
        {
          "internalType": "uint256",
          "name": "tokenId",
          "type": "uint256"
        }
      ],
      "name": "approve",
      "outputs": [],
      "stateMutability": "nonpayable",
      "type": "function"
    },
    {
      "inputs": [
        {
          "internalType": "address",
          "name": "owner",
          "type": "address"
        }
      ],
      "name": "balanceOf",
      "outputs": [
        {
          "internalType": "uint256",
          "name": "",
          "type": "uint256"
        }
      ],
      "stateMutability": "view",
      "type": "function"
    },
    {
      "inputs": [
        {
          "internalType": "string",
          "name": "_tokenURI",
          "type": "string"
        },
        {
          "internalType": "uint256",
          "name": "_price",
          "type": "uint256"
        }
      ],
      "name": "createToken",
      "outputs": [
        {
          "internalType": "uint256",
          "name": "",
          "type": "uint256"
        }
      ],
      "stateMutability": "nonpayable",
      "type": "function"
    },
    {
      "inputs": [
        {
          "internalType": "uint256",
          "name": "tokenId",
          "type": "uint256"
        }
      ],
      "name": "executeSale",
      "outputs": [],
      "stateMutability": "payable",
      "type": "function"
    },
    {
      "inputs": [],
      "name": "getAllListedNFTs",
      "outputs": [
        {
          "components": [
            {
              "internalType": "uint256",
              "name": "tokenId",
              "type": "uint256"
            },
            {
              "internalType": "address payable",
              "name": "owner",
              "type": "address"
            },
            {
              "internalType": "address payable",
              "name": "seller",
              "type": "address"
            },
            {
              "internalType": "uint256",
              "name": "price",
              "type": "uint256"
            }
          ],
          "internalType": "struct NFTSTORE.NFTListing[]",
          "name": "",
          "type": "tuple[]"
        }
      ],
      "stateMutability": "view",
      "type": "function"
    },
    {
      "inputs": [
        {
          "internalType": "uint256",
          "name": "tokenId",
          "type": "uint256"
        }
      ],
      "name": "getApproved",
      "outputs": [
        {
          "internalType": "address",
          "name": "",
          "type": "address"
        }
      ],
      "stateMutability": "view",
      "type": "function"
    },
    {
      "inputs": [],
      "name": "getCurrentTokenId",
      "outputs": [
        {
          "internalType": "uint256",
          "name": "",
          "type": "uint256"
        }
      ],
      "stateMutability": "view",
      "type": "function"
    },
    {
      "inputs": [],
      "name": "getListingFeePercent",
      "outputs": [
        {
          "internalType": "uint256",
          "name": "",
          "type": "uint256"
        }
      ],
      "stateMutability": "view",
      "type": "function"
    },
    {
      "inputs": [],
      "name": "getMyNFTs",
      "outputs": [
        {
          "components": [
            {
              "internalType": "uint256",
              "name": "tokenId",
              "type": "uint256"
            },
            {
              "internalType": "address payable",
              "name": "owner",
              "type": "address"
            },
            {
              "internalType": "address payable",
              "name": "seller",
              "type": "address"
            },
            {
              "internalType": "uint256",
              "name": "price",
              "type": "uint256"
            }
          ],
          "internalType": "struct NFTSTORE.NFTListing[]",
          "name": "",
          "type": "tuple[]"
        }
      ],
      "stateMutability": "view",
      "type": "function"
    },
    {
      "inputs": [
        {
          "internalType": "uint256",
          "name": "_tokenId",
          "type": "uint256"
        }
      ],
      "name": "getNFTListing",
      "outputs": [
        {
          "components": [
            {
              "internalType": "uint256",
              "name": "tokenId",
              "type": "uint256"
            },
            {
              "internalType": "address payable",
              "name": "owner",
              "type": "address"
            },
            {
              "internalType": "address payable",
              "name": "seller",
              "type": "address"
            },
            {
              "internalType": "uint256",
              "name": "price",
              "type": "uint256"
            }
          ],
          "internalType": "struct NFTSTORE.NFTListing",
          "name": "",
          "type": "tuple"
        }
      ],
      "stateMutability": "view",
      "type": "function"
    },
    {
      "inputs": [
        {
          "internalType": "address",
          "name": "owner",
          "type": "address"
        },
        {
          "internalType": "address",
          "name": "operator",
          "type": "address"
        }
      ],
      "name": "isApprovedForAll",
      "outputs": [
        {
          "internalType": "bool",
          "name": "",
          "type": "bool"
        }
      ],
      "stateMutability": "view",
      "type": "function"
    },
    {
      "inputs": [],
      "name": "listingFeePercent",
      "outputs": [
        {
          "internalType": "uint256",
          "name": "",
          "type": "uint256"
        }
      ],
      "stateMutability": "view",
      "type": "function"
    },
    {
      "inputs": [],
      "name": "marketplaceOwner",
      "outputs": [
        {
          "internalType": "address payable",
          "name": "",
          "type": "address"
        }
      ],
      "stateMutability": "view",
      "type": "function"
    },
    {
      "inputs": [],
      "name": "name",
      "outputs": [
        {
          "internalType": "string",
          "name": "",
          "type": "string"
        }
      ],
      "stateMutability": "view",
      "type": "function"
    },
    {
      "inputs": [
        {
          "internalType": "uint256",
          "name": "tokenId",
          "type": "uint256"
        }
      ],
      "name": "ownerOf",
      "outputs": [
        {
          "internalType": "address",
          "name": "",
          "type": "address"
        }
      ],
      "stateMutability": "view",
      "type": "function"
    },
    {
      "inputs": [
        {
          "internalType": "address",
          "name": "from",
          "type": "address"
        },
        {
          "internalType": "address",
          "name": "to",
          "type": "address"
        },
        {
          "internalType": "uint256",
          "name": "tokenId",
          "type": "uint256"
        }
      ],
      "name": "safeTransferFrom",
      "outputs": [],
      "stateMutability": "nonpayable",
      "type": "function"
    },
    {
      "inputs": [
        {
          "internalType": "address",
          "name": "from",
          "type": "address"
        },
        {
          "internalType": "address",
          "name": "to",
          "type": "address"
        },
        {
          "internalType": "uint256",
          "name": "tokenId",
          "type": "uint256"
        },
        {
          "internalType": "bytes",
          "name": "data",
          "type": "bytes"
        }
      ],
      "name": "safeTransferFrom",
      "outputs": [],
      "stateMutability": "nonpayable",
      "type": "function"
    },
    {
      "inputs": [
        {
          "internalType": "address",
          "name": "operator",
          "type": "address"
        },
        {
          "internalType": "bool",
          "name": "approved",
          "type": "bool"
        }
      ],
      "name": "setApprovalForAll",
      "outputs": [],
      "stateMutability": "nonpayable",
      "type": "function"
    },
    {
      "inputs": [
        {
          "internalType": "bytes4",
          "name": "interfaceId",
          "type": "bytes4"
        }
      ],
      "name": "supportsInterface",
      "outputs": [
        {
          "internalType": "bool",
          "name": "",
          "type": "bool"
        }
      ],
      "stateMutability": "view",
      "type": "function"
    },
    {
      "inputs": [],
      "name": "symbol",
      "outputs": [
        {
          "internalType": "string",
          "name": "",
          "type": "string"
        }
      ],
      "stateMutability": "view",
      "type": "function"
    },
    {
      "inputs": [
        {
          "internalType": "uint256",
          "name": "tokenId",
          "type": "uint256"
        }
      ],
      "name": "tokenURI",
      "outputs": [
        {
          "internalType": "string",
          "name": "",
          "type": "string"
        }
      ],
      "stateMutability": "view",
      "type": "function"
    },
    {
      "inputs": [
        {
          "internalType": "address",
          "name": "from",
          "type": "address"
        },
        {
          "internalType": "address",
          "name": "to",
          "type": "address"
        },
        {
          "internalType": "uint256",
          "name": "tokenId",
          "type": "uint256"
        }
      ],
      "name": "transferFrom",
      "outputs": [],
      "stateMutability": "nonpayable",
      "type": "function"
    },
    {
      "inputs": [
        {
          "internalType": "uint256",
          "name": "_listingFeePercent",
          "type": "uint256"
        }
      ],
      "name": "updateListingFeePercent",
      "outputs": [],
      "stateMutability": "nonpayable",
      "type": "function"
    }
  ],
  "bytecode": "0x608060405260146008553480156200001657600080fd5b506040518060400160405280600881526020017f4e465453544f52450000000000000000000000000000000000000000000000008152506040518060400160405280600481526020017f4e4654530000000000000000000000000000000000000000000000000000000081525081600090816200009491906200036a565b508060019081620000a691906200036a565b50505033600760006101000a81548173ffffffffffffffffffffffffffffffffffffffff021916908373ffffffffffffffffffffffffffffffffffffffff16021790555062000451565b600081519050919050565b7f4e487b7100000000000000000000000000000000000000000000000000000000600052604160045260246000fd5b7f4e487b7100000000000000000000000000000000000000000000000000000000600052602260045260246000fd5b600060028204905060018216806200017257607f821691505b6020821081036200018857620001876200012a565b5b50919050565b60008190508160005260206000209050919050565b60006020601f8301049050919050565b600082821b905092915050565b600060088302620001f27fffffffffffffffffffffffffffffffffffffffffffffffffffffffffffffffff82620001b3565b620001fe8683620001b3565b95508019841693508086168417925050509392505050565b6000819050919050565b6000819050919050565b60006200024b620002456200023f8462000216565b62000220565b62000216565b9050919050565b6000819050919050565b62000267836200022a565b6200027f620002768262000252565b848454620001c0565b825550505050565b600090565b6200029662000287565b620002a38184846200025c565b505050565b5b81811015620002cb57620002bf6000826200028c565b600181019050620002a9565b5050565b601f8211156200031a57620002e4816200018e565b620002ef84620001a3565b81016020851015620002ff578190505b620003176200030e85620001a3565b830182620002a8565b50505b505050565b600082821c905092915050565b60006200033f600019846008026200031f565b1980831691505092915050565b60006200035a83836200032c565b9150826002028217905092915050565b6200037582620000f0565b67ffffffffffffffff811115620003915762000390620000fb565b5b6200039d825462000159565b620003aa828285620002cf565b600060209050601f831160018114620003e25760008415620003cd578287015190505b620003d985826200034c565b86555062000449565b601f198416620003f2866200018e565b60005b828110156200041c57848901518255600182019150602085019450602081019050620003f5565b868310156200043c578489015162000438601f8916826200032c565b8355505b6001600288020188555050505b505050505050565b61374e80620004616000396000f3fe6080604052600436106101405760003560e01c8063629cb2e4116100b65780639b1225c41161006f5780639b1225c414610486578063a22cb465146104a2578063ac6a9185146104cb578063b88d4fde146104f4578063c87b56dd1461051d578063e985e9c51461055a57610140565b8063629cb2e41461034e5780636352211e14610379578063650025a0146103b657806370a08231146103e157806372b3b6201461041e57806395d89b411461045b57610140565b80630ea59c4b116101085780630ea59c4b1461023e57806323b872dd1461027b57806342842e0e146102a45780634b58ffaa146102cd57806356189236146102f85780636151ff2e1461032357610140565b806301ffc9a71461014557806306fc12451461018257806306fdde03146101ad578063081812fc146101d8578063095ea7b314610215575b600080fd5b34801561015157600080fd5b5061016c6004803603810190610167919061271c565b610597565b6040516101799190612764565b60405180910390f35b34801561018e57600080fd5b506101976105f8565b6040516101a49190612798565b60405180910390f35b3480156101b957600080fd5b506101c2610602565b6040516101cf9190612843565b60405180910390f35b3480156101e457600080fd5b506101ff60048036038101906101fa9190612891565b610694565b60405161020c91906128ff565b60405180910390f35b34801561022157600080fd5b5061023c60048036038101906102379190612946565b6106b0565b005b34801561024a57600080fd5b5061026560048036038101906102609190612891565b6106c6565b6040516102729190612a0b565b60405180910390f35b34801561028757600080fd5b506102a2600480360381019061029d9190612a26565b6107b3565b005b3480156102b057600080fd5b506102cb60048036038101906102c69190612a26565b6108b5565b005b3480156102d957600080fd5b506102e26108d5565b6040516102ef9190612b7d565b60405180910390f35b34801561030457600080fd5b5061030d610a82565b60405161031a9190612798565b60405180910390f35b34801561032f57600080fd5b50610338610a8c565b6040516103459190612798565b60405180910390f35b34801561035a57600080fd5b50610363610a92565b6040516103709190612b7d565b60405180910390f35b34801561038557600080fd5b506103a0600480360381019061039b9190612891565b610e4c565b6040516103ad91906128ff565b60405180910390f35b3480156103c257600080fd5b506103cb610e5e565b6040516103d89190612bae565b60405180910390f35b3480156103ed57600080fd5b5061040860048036038101906104039190612bc9565b610e84565b6040516104159190612798565b60405180910390f35b34801561042a57600080fd5b5061044560048036038101906104409190612d2b565b610f3e565b6040516104529190612798565b60405180910390f35b34801561046757600080fd5b50610470610fc9565b60405161047d9190612843565b60405180910390f35b6104a0600480360381019061049b9190612891565b61105b565b005b3480156104ae57600080fd5b506104c960048036038101906104c49190612db3565b611250565b005b3480156104d757600080fd5b506104f260048036038101906104ed9190612891565b611266565b005b34801561050057600080fd5b5061051b60048036038101906105169190612e94565b611300565b005b34801561052957600080fd5b50610544600480360381019061053f9190612891565b61131d565b6040516105519190612843565b60405180910390f35b34801561056657600080fd5b50610581600480360381019061057c9190612f17565b611430565b60405161058e9190612764565b60405180910390f35b6000634906490660e01b7bffffffffffffffffffffffffffffffffffffffffffffffffffffffff1916827bffffffffffffffffffffffffffffffffffffffffffffffffffffffff191614806105f157506105f0826114c4565b5b9050919050565b6000600854905090565b60606000805461061190612f86565b80601f016020809104026020016040519081016040528092919081815260200182805461063d90612f86565b801561068a5780601f1061065f5761010080835404028352916020019161068a565b820191906000526020600020905b81548152906001019060200180831161066d57829003601f168201915b5050505050905090565b600061069f826115a6565b506106a98261162e565b9050919050565b6106c282826106bd61166b565b611673565b5050565b6106ce61265c565b600b6000838152602001908152602001600020604051806080016040529081600082015481526020016001820160009054906101000a900473ffffffffffffffffffffffffffffffffffffffff1673ffffffffffffffffffffffffffffffffffffffff1673ffffffffffffffffffffffffffffffffffffffff1681526020016002820160009054906101000a900473ffffffffffffffffffffffffffffffffffffffff1673ffffffffffffffffffffffffffffffffffffffff1673ffffffffffffffffffffffffffffffffffffffff1681526020016003820154815250509050919050565b600073ffffffffffffffffffffffffffffffffffffffff168273ffffffffffffffffffffffffffffffffffffffff16036108255760006040517f64a0ae9200000000000000000000000000000000000000000000000000000000815260040161081c91906128ff565b60405180910390fd5b6000610839838361083461166b565b611685565b90508373ffffffffffffffffffffffffffffffffffffffff168173ffffffffffffffffffffffffffffffffffffffff16146108af578382826040517f64283d7b0000000000000000000000000000000000000000000000000000000081526004016108a693929190612fb7565b60405180910390fd5b50505050565b6108d083838360405180602001604052806000815250611300565b505050565b60606000600954905060008167ffffffffffffffff8111156108fa576108f9612c00565b5b60405190808252806020026020018201604052801561093357816020015b61092061265c565b8152602001906001900390816109185790505b5090506000805b83811015610a78576000600182610951919061301d565b90506000600b6000838152602001908152602001600020905080604051806080016040529081600082015481526020016001820160009054906101000a900473ffffffffffffffffffffffffffffffffffffffff1673ffffffffffffffffffffffffffffffffffffffff1673ffffffffffffffffffffffffffffffffffffffff1681526020016002820160009054906101000a900473ffffffffffffffffffffffffffffffffffffffff1673ffffffffffffffffffffffffffffffffffffffff1673ffffffffffffffffffffffffffffffffffffffff168152602001600382015481525050858581518110610a4957610a48613051565b5b6020026020010181905250600184610a61919061301d565b935050508080610a7090613080565b91505061093a565b5081935050505090565b6000600954905090565b60085481565b60606000600954905060008060005b83811015610bb9573373ffffffffffffffffffffffffffffffffffffffff16600b6000600184610ad1919061301d565b815260200190815260200160002060010160009054906101000a900473ffffffffffffffffffffffffffffffffffffffff1673ffffffffffffffffffffffffffffffffffffffff161480610b9257503373ffffffffffffffffffffffffffffffffffffffff16600b6000600184610b48919061301d565b815260200190815260200160002060020160009054906101000a900473ffffffffffffffffffffffffffffffffffffffff1673ffffffffffffffffffffffffffffffffffffffff16145b15610ba6578280610ba290613080565b9350505b8080610bb190613080565b915050610aa1565b5060008267ffffffffffffffff811115610bd657610bd5612c00565b5b604051908082528060200260200182016040528015610c0f57816020015b610bfc61265c565b815260200190600190039081610bf45790505b50905060005b84811015610e41573373ffffffffffffffffffffffffffffffffffffffff16600b6000600184610c45919061301d565b815260200190815260200160002060010160009054906101000a900473ffffffffffffffffffffffffffffffffffffffff1673ffffffffffffffffffffffffffffffffffffffff161480610d0657503373ffffffffffffffffffffffffffffffffffffffff16600b6000600184610cbc919061301d565b815260200190815260200160002060020160009054906101000a900473ffffffffffffffffffffffffffffffffffffffff1673ffffffffffffffffffffffffffffffffffffffff16145b15610e2e576000600182610d1a919061301d565b90506000600b6000838152602001908152602001600020905080604051806080016040529081600082015481526020016001820160009054906101000a900473ffffffffffffffffffffffffffffffffffffffff1673ffffffffffffffffffffffffffffffffffffffff1673ffffffffffffffffffffffffffffffffffffffff1681526020016002820160009054906101000a900473ffffffffffffffffffffffffffffffffffffffff1673ffffffffffffffffffffffffffffffffffffffff1673ffffffffffffffffffffffffffffffffffffffff168152602001600382015481525050848681518110610e1257610e11613051565b5b60200260200101819052508480610e2890613080565b95505050505b8080610e3990613080565b915050610c15565b508094505050505090565b6000610e57826115a6565b9050919050565b600760009054906101000a900473ffffffffffffffffffffffffffffffffffffffff1681565b60008073ffffffffffffffffffffffffffffffffffffffff168273ffffffffffffffffffffffffffffffffffffffff1603610ef75760006040517f89c62b64000000000000000000000000000000000000000000000000000000008152600401610eee91906128ff565b60405180910390fd5b600360008373ffffffffffffffffffffffffffffffffffffffff1673ffffffffffffffffffffffffffffffffffffffff168152602001908152602001600020549050919050565b6000808211610f82576040517f08c379a0000000000000000000000000000000000000000000000000000000008152600401610f7990613114565b60405180910390fd5b60096000815480929190610f9590613080565b919050555060006009549050610fab338261189f565b610fb581856118bd565b610fbf8184611919565b8091505092915050565b606060018054610fd890612f86565b80601f016020809104026020016040519081016040528092919081815260200182805461100490612f86565b80156110515780601f1061102657610100808354040283529160200191611051565b820191906000526020600020905b81548152906001019060200180831161103457829003601f168201915b5050505050905090565b6000600b6000838152602001908152602001600020905060008160030154905060008260020160009054906101000a900473ffffffffffffffffffffffffffffffffffffffff1690508134146110e6576040517f08c379a00000000000000000000000000000000000000000000000000000000081526004016110dd906131a6565b60405180910390fd5b338360020160006101000a81548173ffffffffffffffffffffffffffffffffffffffff021916908373ffffffffffffffffffffffffffffffffffffffff160217905550600a600081548092919061113c90613080565b91905055506111708360010160009054906101000a900473ffffffffffffffffffffffffffffffffffffffff163386611a22565b600060646008548461118291906131c6565b61118c9190613237565b9050600760009054906101000a900473ffffffffffffffffffffffffffffffffffffffff1673ffffffffffffffffffffffffffffffffffffffff166108fc829081150290604051600060405180830381858888f193505050501580156111f6573d6000803e3d6000fd5b508173ffffffffffffffffffffffffffffffffffffffff166108fc823461121d9190613268565b9081150290604051600060405180830381858888f19350505050158015611248573d6000803e3d6000fd5b505050505050565b61126261125b61166b565b8383611b8f565b5050565b600760009054906101000a900473ffffffffffffffffffffffffffffffffffffffff1673ffffffffffffffffffffffffffffffffffffffff163373ffffffffffffffffffffffffffffffffffffffff16146112f6576040517f08c379a00000000000000000000000000000000000000000000000000000000081526004016112ed9061330e565b60405180910390fd5b8060088190555050565b61130b8484846107b3565b61131784848484611cfe565b50505050565b6060611328826115a6565b50600060066000848152602001908152602001600020805461134990612f86565b80601f016020809104026020016040519081016040528092919081815260200182805461137590612f86565b80156113c25780601f10611397576101008083540402835291602001916113c2565b820191906000526020600020905b8154815290600101906020018083116113a557829003601f168201915b5050505050905060006113d3611eb5565b905060008151036113e857819250505061142b565b60008251111561141d57808260405160200161140592919061336a565b6040516020818303038152906040529250505061142b565b61142684611ecc565b925050505b919050565b6000600560008473ffffffffffffffffffffffffffffffffffffffff1673ffffffffffffffffffffffffffffffffffffffff16815260200190815260200160002060008373ffffffffffffffffffffffffffffffffffffffff1673ffffffffffffffffffffffffffffffffffffffff16815260200190815260200160002060009054906101000a900460ff16905092915050565b60007f80ac58cd000000000000000000000000000000000000000000000000000000007bffffffffffffffffffffffffffffffffffffffffffffffffffffffff1916827bffffffffffffffffffffffffffffffffffffffffffffffffffffffff1916148061158f57507f5b5e139f000000000000000000000000000000000000000000000000000000007bffffffffffffffffffffffffffffffffffffffffffffffffffffffff1916827bffffffffffffffffffffffffffffffffffffffffffffffffffffffff1916145b8061159f575061159e82611f35565b5b9050919050565b6000806115b283611f9f565b9050600073ffffffffffffffffffffffffffffffffffffffff168173ffffffffffffffffffffffffffffffffffffffff160361162557826040517f7e27328900000000000000000000000000000000000000000000000000000000815260040161161c9190612798565b60405180910390fd5b80915050919050565b60006004600083815260200190815260200160002060009054906101000a900473ffffffffffffffffffffffffffffffffffffffff169050919050565b600033905090565b6116808383836001611fdc565b505050565b60008061169184611f9f565b9050600073ffffffffffffffffffffffffffffffffffffffff168373ffffffffffffffffffffffffffffffffffffffff16146116d3576116d28184866121a1565b5b600073ffffffffffffffffffffffffffffffffffffffff168173ffffffffffffffffffffffffffffffffffffffff161461176457611715600085600080611fdc565b6001600360008373ffffffffffffffffffffffffffffffffffffffff1673ffffffffffffffffffffffffffffffffffffffff168152602001908152602001600020600082825403925050819055505b600073ffffffffffffffffffffffffffffffffffffffff168573ffffffffffffffffffffffffffffffffffffffff16146117e7576001600360008773ffffffffffffffffffffffffffffffffffffffff1673ffffffffffffffffffffffffffffffffffffffff168152602001908152602001600020600082825401925050819055505b846002600086815260200190815260200160002060006101000a81548173ffffffffffffffffffffffffffffffffffffffff021916908373ffffffffffffffffffffffffffffffffffffffff160217905550838573ffffffffffffffffffffffffffffffffffffffff168273ffffffffffffffffffffffffffffffffffffffff167fddf252ad1be2c89b69c2b068fc378daa952ba7f163c4a11628f55a4df523b3ef60405160405180910390a4809150509392505050565b6118b9828260405180602001604052806000815250612265565b5050565b806006600084815260200190815260200160002090816118dd919061353a565b507ff8e1a15aba9398e019f0b49df1a4fde98ee17ae345cb5f6b5e2c27f5033e8ce78260405161190d9190612798565b60405180910390a15050565b60405180608001604052808381526020013373ffffffffffffffffffffffffffffffffffffffff1681526020013373ffffffffffffffffffffffffffffffffffffffff16815260200182815250600b60008481526020019081526020016000206000820151816000015560208201518160010160006101000a81548173ffffffffffffffffffffffffffffffffffffffff021916908373ffffffffffffffffffffffffffffffffffffffff16021790555060408201518160020160006101000a81548173ffffffffffffffffffffffffffffffffffffffff021916908373ffffffffffffffffffffffffffffffffffffffff160217905550606082015181600301559050505050565b600073ffffffffffffffffffffffffffffffffffffffff168273ffffffffffffffffffffffffffffffffffffffff1603611a945760006040517f64a0ae92000000000000000000000000000000000000000000000000000000008152600401611a8b91906128ff565b60405180910390fd5b6000611aa283836000611685565b9050600073ffffffffffffffffffffffffffffffffffffffff168173ffffffffffffffffffffffffffffffffffffffff1603611b1557816040517f7e273289000000000000000000000000000000000000000000000000000000008152600401611b0c9190612798565b60405180910390fd5b8373ffffffffffffffffffffffffffffffffffffffff168173ffffffffffffffffffffffffffffffffffffffff1614611b89578382826040517f64283d7b000000000000000000000000000000000000000000000000000000008152600401611b8093929190612fb7565b60405180910390fd5b50505050565b600073ffffffffffffffffffffffffffffffffffffffff168273ffffffffffffffffffffffffffffffffffffffff1603611c0057816040517f5b08ba18000000000000000000000000000000000000000000000000000000008152600401611bf791906128ff565b60405180910390fd5b80600560008573ffffffffffffffffffffffffffffffffffffffff1673ffffffffffffffffffffffffffffffffffffffff16815260200190815260200160002060008473ffffffffffffffffffffffffffffffffffffffff1673ffffffffffffffffffffffffffffffffffffffff16815260200190815260200160002060006101000a81548160ff0219169083151502179055508173ffffffffffffffffffffffffffffffffffffffff168373ffffffffffffffffffffffffffffffffffffffff167f17307eab39ab6107e8899845ad3d59bd9653f200f220920489ca2b5937696c3183604051611cf19190612764565b60405180910390a3505050565b60008373ffffffffffffffffffffffffffffffffffffffff163b1115611eaf578273ffffffffffffffffffffffffffffffffffffffff1663150b7a02611d4261166b565b8685856040518563ffffffff1660e01b8152600401611d649493929190613661565b6020604051808303816000875af1925050508015611da057506040513d601f19601f82011682018060405250810190611d9d91906136c2565b60015b611e24573d8060008114611dd0576040519150601f19603f3d011682016040523d82523d6000602084013e611dd5565b606091505b506000815103611e1c57836040517f64a0ae92000000000000000000000000000000000000000000000000000000008152600401611e1391906128ff565b60405180910390fd5b805181602001fd5b63150b7a0260e01b7bffffffffffffffffffffffffffffffffffffffffffffffffffffffff1916817bffffffffffffffffffffffffffffffffffffffffffffffffffffffff191614611ead57836040517f64a0ae92000000000000000000000000000000000000000000000000000000008152600401611ea491906128ff565b60405180910390fd5b505b50505050565b606060405180602001604052806000815250905090565b6060611ed7826115a6565b506000611ee2611eb5565b90506000815111611f025760405180602001604052806000815250611f2d565b80611f0c84612281565b604051602001611f1d92919061336a565b6040516020818303038152906040525b915050919050565b60007f01ffc9a7000000000000000000000000000000000000000000000000000000007bffffffffffffffffffffffffffffffffffffffffffffffffffffffff1916827bffffffffffffffffffffffffffffffffffffffffffffffffffffffff1916149050919050565b60006002600083815260200190815260200160002060009054906101000a900473ffffffffffffffffffffffffffffffffffffffff169050919050565b80806120155750600073ffffffffffffffffffffffffffffffffffffffff168273ffffffffffffffffffffffffffffffffffffffff1614155b15612149576000612025846115a6565b9050600073ffffffffffffffffffffffffffffffffffffffff168373ffffffffffffffffffffffffffffffffffffffff161415801561209057508273ffffffffffffffffffffffffffffffffffffffff168173ffffffffffffffffffffffffffffffffffffffff1614155b80156120a357506120a18184611430565b155b156120e557826040517fa9fbf51f0000000000000000000000000000000000000000000000000000000081526004016120dc91906128ff565b60405180910390fd5b811561214757838573ffffffffffffffffffffffffffffffffffffffff168273ffffffffffffffffffffffffffffffffffffffff167f8c5be1e5ebec7d5bd14f71427d1e84f3dd0314c0f7b2291e5b200ac8c7c3b92560405160405180910390a45b505b836004600085815260200190815260200160002060006101000a81548173ffffffffffffffffffffffffffffffffffffffff021916908373ffffffffffffffffffffffffffffffffffffffff16021790555050505050565b6121ac83838361234f565b61226057600073ffffffffffffffffffffffffffffffffffffffff168373ffffffffffffffffffffffffffffffffffffffff160361222157806040517f7e2732890000000000000000000000000000000000000000000000000000000081526004016122189190612798565b60405180910390fd5b81816040517f177e802f0000000000000000000000000000000000000000000000000000000081526004016122579291906136ef565b60405180910390fd5b505050565b61226f8383612410565b61227c6000848484611cfe565b505050565b60606000600161229084612509565b01905060008167ffffffffffffffff8111156122af576122ae612c00565b5b6040519080825280601f01601f1916602001820160405280156122e15781602001600182028036833780820191505090505b509050600082602001820190505b600115612344578080600190039150507f3031323334353637383961626364656600000000000000000000000000000000600a86061a8153600a858161233857612337613208565b5b049450600085036122ef575b819350505050919050565b60008073ffffffffffffffffffffffffffffffffffffffff168373ffffffffffffffffffffffffffffffffffffffff161415801561240757508273ffffffffffffffffffffffffffffffffffffffff168473ffffffffffffffffffffffffffffffffffffffff1614806123c857506123c78484611430565b5b8061240657508273ffffffffffffffffffffffffffffffffffffffff166123ee8361162e565b73ffffffffffffffffffffffffffffffffffffffff16145b5b90509392505050565b600073ffffffffffffffffffffffffffffffffffffffff168273ffffffffffffffffffffffffffffffffffffffff16036124825760006040517f64a0ae9200000000000000000000000000000000000000000000000000000000815260040161247991906128ff565b60405180910390fd5b600061249083836000611685565b9050600073ffffffffffffffffffffffffffffffffffffffff168173ffffffffffffffffffffffffffffffffffffffff16146125045760006040517f73c6ac6e0000000000000000000000000000000000000000000000000000000081526004016124fb91906128ff565b60405180910390fd5b505050565b600080600090507a184f03e93ff9f4daa797ed6e38ed64bf6a1f0100000000000000008310612567577a184f03e93ff9f4daa797ed6e38ed64bf6a1f010000000000000000838161255d5761255c613208565b5b0492506040810190505b6d04ee2d6d415b85acef810000000083106125a4576d04ee2d6d415b85acef8100000000838161259a57612599613208565b5b0492506020810190505b662386f26fc1000083106125d357662386f26fc1000083816125c9576125c8613208565b5b0492506010810190505b6305f5e10083106125fc576305f5e10083816125f2576125f1613208565b5b0492506008810190505b612710831061262157612710838161261757612616613208565b5b0492506004810190505b60648310612644576064838161263a57612639613208565b5b0492506002810190505b600a8310612653576001810190505b80915050919050565b604051806080016040528060008152602001600073ffffffffffffffffffffffffffffffffffffffff168152602001600073ffffffffffffffffffffffffffffffffffffffff168152602001600081525090565b6000604051905090565b600080fd5b600080fd5b60007fffffffff0000000000000000000000000000000000000000000000000000000082169050919050565b6126f9816126c4565b811461270457600080fd5b50565b600081359050612716816126f0565b92915050565b600060208284031215612732576127316126ba565b5b600061274084828501612707565b91505092915050565b60008115159050919050565b61275e81612749565b82525050565b60006020820190506127796000830184612755565b92915050565b6000819050919050565b6127928161277f565b82525050565b60006020820190506127ad6000830184612789565b92915050565b600081519050919050565b600082825260208201905092915050565b60005b838110156127ed5780820151818401526020810190506127d2565b60008484015250505050565b6000601f19601f8301169050919050565b6000612815826127b3565b61281f81856127be565b935061282f8185602086016127cf565b612838816127f9565b840191505092915050565b6000602082019050818103600083015261285d818461280a565b905092915050565b61286e8161277f565b811461287957600080fd5b50565b60008135905061288b81612865565b92915050565b6000602082840312156128a7576128a66126ba565b5b60006128b58482850161287c565b91505092915050565b600073ffffffffffffffffffffffffffffffffffffffff82169050919050565b60006128e9826128be565b9050919050565b6128f9816128de565b82525050565b600060208201905061291460008301846128f0565b92915050565b612923816128de565b811461292e57600080fd5b50565b6000813590506129408161291a565b92915050565b6000806040838503121561295d5761295c6126ba565b5b600061296b85828601612931565b925050602061297c8582860161287c565b9150509250929050565b61298f8161277f565b82525050565b60006129a0826128be565b9050919050565b6129b081612995565b82525050565b6080820160008201516129cc6000850182612986565b5060208201516129df60208501826129a7565b5060408201516129f260408501826129a7565b506060820151612a056060850182612986565b50505050565b6000608082019050612a2060008301846129b6565b92915050565b600080600060608486031215612a3f57612a3e6126ba565b5b6000612a4d86828701612931565b9350506020612a5e86828701612931565b9250506040612a6f8682870161287c565b9150509250925092565b600081519050919050565b600082825260208201905092915050565b6000819050602082019050919050565b608082016000820151612abb6000850182612986565b506020820151612ace60208501826129a7565b506040820151612ae160408501826129a7565b506060820151612af46060850182612986565b50505050565b6000612b068383612aa5565b60808301905092915050565b6000602082019050919050565b6000612b2a82612a79565b612b348185612a84565b9350612b3f83612a95565b8060005b83811015612b70578151612b578882612afa565b9750612b6283612b12565b925050600181019050612b43565b5085935050505092915050565b60006020820190508181036000830152612b978184612b1f565b905092915050565b612ba881612995565b82525050565b6000602082019050612bc36000830184612b9f565b92915050565b600060208284031215612bdf57612bde6126ba565b5b6000612bed84828501612931565b91505092915050565b600080fd5b600080fd5b7f4e487b7100000000000000000000000000000000000000000000000000000000600052604160045260246000fd5b612c38826127f9565b810181811067ffffffffffffffff82111715612c5757612c56612c00565b5b80604052505050565b6000612c6a6126b0565b9050612c768282612c2f565b919050565b600067ffffffffffffffff821115612c9657612c95612c00565b5b612c9f826127f9565b9050602081019050919050565b82818337600083830152505050565b6000612cce612cc984612c7b565b612c60565b905082815260208101848484011115612cea57612ce9612bfb565b5b612cf5848285612cac565b509392505050565b600082601f830112612d1257612d11612bf6565b5b8135612d22848260208601612cbb565b91505092915050565b60008060408385031215612d4257612d416126ba565b5b600083013567ffffffffffffffff811115612d6057612d5f6126bf565b5b612d6c85828601612cfd565b9250506020612d7d8582860161287c565b9150509250929050565b612d9081612749565b8114612d9b57600080fd5b50565b600081359050612dad81612d87565b92915050565b60008060408385031215612dca57612dc96126ba565b5b6000612dd885828601612931565b9250506020612de985828601612d9e565b9150509250929050565b600067ffffffffffffffff821115612e0e57612e0d612c00565b5b612e17826127f9565b9050602081019050919050565b6000612e37612e3284612df3565b612c60565b905082815260208101848484011115612e5357612e52612bfb565b5b612e5e848285612cac565b509392505050565b600082601f830112612e7b57612e7a612bf6565b5b8135612e8b848260208601612e24565b91505092915050565b60008060008060808587031215612eae57612ead6126ba565b5b6000612ebc87828801612931565b9450506020612ecd87828801612931565b9350506040612ede8782880161287c565b925050606085013567ffffffffffffffff811115612eff57612efe6126bf565b5b612f0b87828801612e66565b91505092959194509250565b60008060408385031215612f2e57612f2d6126ba565b5b6000612f3c85828601612931565b9250506020612f4d85828601612931565b9150509250929050565b7f4e487b7100000000000000000000000000000000000000000000000000000000600052602260045260246000fd5b60006002820490506001821680612f9e57607f821691505b602082108103612fb157612fb0612f57565b5b50919050565b6000606082019050612fcc60008301866128f0565b612fd96020830185612789565b612fe660408301846128f0565b949350505050565b7f4e487b7100000000000000000000000000000000000000000000000000000000600052601160045260246000fd5b60006130288261277f565b91506130338361277f565b925082820190508082111561304b5761304a612fee565b5b92915050565b7f4e487b7100000000000000000000000000000000000000000000000000000000600052603260045260246000fd5b600061308b8261277f565b91507fffffffffffffffffffffffffffffffffffffffffffffffffffffffffffffffff82036130bd576130bc612fee565b5b600182019050919050565b7f5072696365206d7573742062652067726561746572207468616e207a65726f00600082015250565b60006130fe601f836127be565b9150613109826130c8565b602082019050919050565b6000602082019050818103600083015261312d816130f1565b9050919050565b7f506c65617365207375626d6974207468652061736b696e67207072696365207460008201527f6f20636f6d706c65746520746865207075726368617365000000000000000000602082015250565b60006131906037836127be565b915061319b82613134565b604082019050919050565b600060208201905081810360008301526131bf81613183565b9050919050565b60006131d18261277f565b91506131dc8361277f565b92508282026131ea8161277f565b9150828204841483151761320157613200612fee565b5b5092915050565b7f4e487b7100000000000000000000000000000000000000000000000000000000600052601260045260246000fd5b60006132428261277f565b915061324d8361277f565b92508261325d5761325c613208565b5b828204905092915050565b60006132738261277f565b915061327e8361277f565b925082820390508181111561329657613295612fee565b5b92915050565b7f4f6e6c79206f776e65722063616e2063616c6c20746869732066756e6374696f60008201527f6e00000000000000000000000000000000000000000000000000000000000000602082015250565b60006132f86021836127be565b91506133038261329c565b604082019050919050565b60006020820190508181036000830152613327816132eb565b9050919050565b600081905092915050565b6000613344826127b3565b61334e818561332e565b935061335e8185602086016127cf565b80840191505092915050565b60006133768285613339565b91506133828284613339565b91508190509392505050565b60008190508160005260206000209050919050565b60006020601f8301049050919050565b600082821b905092915050565b6000600883026133f07fffffffffffffffffffffffffffffffffffffffffffffffffffffffffffffffff826133b3565b6133fa86836133b3565b95508019841693508086168417925050509392505050565b6000819050919050565b600061343761343261342d8461277f565b613412565b61277f565b9050919050565b6000819050919050565b6134518361341c565b61346561345d8261343e565b8484546133c0565b825550505050565b600090565b61347a61346d565b613485818484613448565b505050565b5b818110156134a95761349e600082613472565b60018101905061348b565b5050565b601f8211156134ee576134bf8161338e565b6134c8846133a3565b810160208510156134d7578190505b6134eb6134e3856133a3565b83018261348a565b50505b505050565b600082821c905092915050565b6000613511600019846008026134f3565b1980831691505092915050565b600061352a8383613500565b9150826002028217905092915050565b613543826127b3565b67ffffffffffffffff81111561355c5761355b612c00565b5b6135668254612f86565b6135718282856134ad565b600060209050601f8311600181146135a45760008415613592578287015190505b61359c858261351e565b865550613604565b601f1984166135b28661338e565b60005b828110156135da578489015182556001820191506020850194506020810190506135b5565b868310156135f757848901516135f3601f891682613500565b8355505b6001600288020188555050505b505050505050565b600081519050919050565b600082825260208201905092915050565b60006136338261360c565b61363d8185613617565b935061364d8185602086016127cf565b613656816127f9565b840191505092915050565b600060808201905061367660008301876128f0565b61368360208301866128f0565b6136906040830185612789565b81810360608301526136a28184613628565b905095945050505050565b6000815190506136bc816126f0565b92915050565b6000602082840312156136d8576136d76126ba565b5b60006136e6848285016136ad565b91505092915050565b600060408201905061370460008301856128f0565b6137116020830184612789565b939250505056fea264697066735822122024e9b66c09783524c61936763464954604ff11701a6860255d1113581766c7c064736f6c63430008140033",
  "linkReferences": {},
  "deployedLinkReferences": {}
}